{
  "contractName": "LogicOne",
  "abi": [
    {
      "constant": true,
      "inputs": [],
      "name": "val",
      "outputs": [
        {
          "internalType": "uint256",
          "name": "",
          "type": "uint256"
        }
      ],
      "payable": false,
      "stateMutability": "view",
      "type": "function"
    },
    {
      "constant": false,
      "inputs": [
        {
          "internalType": "uint256",
          "name": "_val",
          "type": "uint256"
        }
      ],
      "name": "setVal",
      "outputs": [
        {
          "internalType": "bool",
          "name": "success",
          "type": "bool"
        }
      ],
      "payable": false,
      "stateMutability": "nonpayable",
      "type": "function"
    }
  ],
  "bytecode": "0x608060405234801561001057600080fd5b5060e68061001f6000396000f3fe6080604052348015600f57600080fd5b506004361060325760003560e01c80633c6bb4361460375780633d4197f0146053575b600080fd5b603d6096565b6040518082815260200191505060405180910390f35b607c60048036036020811015606757600080fd5b8101908080359060200190929190505050609c565b604051808215151515815260200191505060405180910390f35b60005481565b6000816002026000819055506001905091905056fea265627a7a72315820b683e4de85d37b7949e0378a52c10b5b3e4977d50f1436bb56287dece74ea1fc64736f6c63430005100032",
  "source": "pragma solidity ^0.5.16;\n\nimport './Storage.sol';\ncontract LogicOne is Storage {\n    \n    function setVal(uint _val) public returns (bool success) {\n        val = 2 * _val;\n        return true;\n    }\n\n}\n\n",
  "sourcePath": "C:/Users/richa/Desktop/Blockchain Intermediate/2-3-21/Upgradable-Proxy-Smart-Contract-master/contracts/LogicOne.sol",
  "compiler": {
    "name": "solc",
    "version": "0.5.16+commit.9c3226ce.Emscripten.clang"
  },
  "schemaVersion": "3.3.4",
  "updatedAt": "2021-03-17T02:06:30.462Z",
  "networkType": "ethereum",
  "devdoc": {
    "methods": {}
  },
  "userdoc": {
    "methods": {}
  }
}