{
  "contractName": "Registry",
  "abi": [
    {
      "payable": true,
      "stateMutability": "payable",
      "type": "fallback"
    },
    {
      "constant": true,
      "inputs": [],
      "name": "logic_contract",
      "outputs": [
        {
          "internalType": "address",
          "name": "",
          "type": "address"
        }
      ],
      "payable": false,
      "stateMutability": "view",
      "type": "function"
    },
    {
      "constant": true,
      "inputs": [],
      "name": "owner",
      "outputs": [
        {
          "internalType": "address",
          "name": "",
          "type": "address"
        }
      ],
      "payable": false,
      "stateMutability": "view",
      "type": "function"
    },
    {
      "constant": true,
      "inputs": [],
      "name": "val",
      "outputs": [
        {
          "internalType": "uint256",
          "name": "",
          "type": "uint256"
        }
      ],
      "payable": false,
      "stateMutability": "view",
      "type": "function"
    },
    {
      "constant": false,
      "inputs": [
        {
          "internalType": "address",
          "name": "_c",
          "type": "address"
        }
      ],
      "name": "setLogicContract",
      "outputs": [
        {
          "internalType": "bool",
          "name": "success",
          "type": "bool"
        }
      ],
      "payable": false,
      "stateMutability": "nonpayable",
      "type": "function"
    }
  ],
  "bytecode": "0x608060405233600160006101000a81548173ffffffffffffffffffffffffffffffffffffffff021916908373ffffffffffffffffffffffffffffffffffffffff160217905550610310806100546000396000f3fe60806040526004361061003f5760003560e01c80633c6bb436146100a15780634de94320146100cc5780635aa4470f146101235780638da5cb5b1461018c575b6000600260009054906101000a900473ffffffffffffffffffffffffffffffffffffffff16905060405136600082376000803683855af43d806000843e816000811461009257600181146100965761009a565b8184fd5b8184f35b5050505050005b3480156100ad57600080fd5b506100b66101e3565b6040518082815260200191505060405180910390f35b3480156100d857600080fd5b506100e16101e9565b604051808273ffffffffffffffffffffffffffffffffffffffff1673ffffffffffffffffffffffffffffffffffffffff16815260200191505060405180910390f35b34801561012f57600080fd5b506101726004803603602081101561014657600080fd5b81019080803573ffffffffffffffffffffffffffffffffffffffff16906020019092919050505061020f565b604051808215151515815260200191505060405180910390f35b34801561019857600080fd5b506101a16102b5565b604051808273ffffffffffffffffffffffffffffffffffffffff1673ffffffffffffffffffffffffffffffffffffffff16815260200191505060405180910390f35b60005481565b600260009054906101000a900473ffffffffffffffffffffffffffffffffffffffff1681565b6000600160009054906101000a900473ffffffffffffffffffffffffffffffffffffffff1673ffffffffffffffffffffffffffffffffffffffff163373ffffffffffffffffffffffffffffffffffffffff161461026b57600080fd5b81600260006101000a81548173ffffffffffffffffffffffffffffffffffffffff021916908373ffffffffffffffffffffffffffffffffffffffff16021790555060019050919050565b600160009054906101000a900473ffffffffffffffffffffffffffffffffffffffff168156fea265627a7a72315820ef93e914fc6990f9e9be610d37331bdadf2a86c2ff7b5d4d50b545c41dead36164736f6c63430005100032",
  "source": "pragma solidity ^0.5.16;\n\nimport './Ownable.sol';\nimport './Storage.sol';\n\ncontract Registry is Storage, Ownable {\n\n    address public logic_contract;\n\n    // admin to set contract\n    function setLogicContract(address _c) public onlyOwner returns (bool success){\n        logic_contract = _c;\n        return true;\n    }\n\n    // fall back function\n    function () external payable  {\n\n        address target = logic_contract;\n\n        assembly {\n            // Copy the data sent to the memory address starting free mem position\n            let ptr := mload(0x40)\n            calldatacopy(ptr, 0, calldatasize)\n\n            // Proxy the call to the contract address with the provided gas and data\n            let result := delegatecall(gas, target, ptr, calldatasize, 0, 0)\n\n            // Copy the data returned by the proxied call to memory\n            let size := returndatasize\n            returndatacopy(ptr, 0, size)\n\n            // Check what the result is, return and revert accordingly\n            switch result\n            case 0 { revert(ptr, size) }\n            case 1 { return(ptr, size) }\n        }\n    }\n\n}\n",
  "sourcePath": "C:/Users/richa/Desktop/Blockchain Intermediate/2-3-21/Upgradable-Proxy-Smart-Contract-master/contracts/Registry.sol",
  "compiler": {
    "name": "solc",
    "version": "0.5.16+commit.9c3226ce.Emscripten.clang"
  },
  "schemaVersion": "3.3.4",
  "updatedAt": "2021-03-17T02:06:30.165Z",
  "networkType": "ethereum",
  "devdoc": {
    "methods": {}
  },
  "userdoc": {
    "methods": {}
  }
}